{
  "transactions": [
    {
      "hash": "0x58e6c58560fc48aa0c99d45d507543db471af96496d6765ffa8821ed990ad041",
      "transactionType": "CALL",
      "contractName": null,
      "contractAddress": "0x5fc8d32690cc91d4c39d9d3abcbd16989f875707",
      "function": "mint(address,uint256)",
      "arguments": [
        "0xf39Fd6e51aad88F6F4ce6aB8827279cffFb92266",
        "100000000000"
      ],
      "transaction": {
        "from": "0xf39fd6e51aad88f6f4ce6ab8827279cfffb92266",
        "to": "0x5fc8d32690cc91d4c39d9d3abcbd16989f875707",
        "gas": "0xe799",
        "value": "0x0",
        "input": "0x40c10f19000000000000000000000000f39fd6e51aad88f6f4ce6ab8827279cfffb92266000000000000000000000000000000000000000000000000000000174876e800",
        "nonce": "0xa",
        "chainId": "0x7a69"
      },
      "additionalContracts": [],
      "isFixedGasLimit": false
    }
  ],
  "receipts": [
    {
      "status": "0x1",
      "cumulativeGasUsed": "0xa7ad",
      "logs": [
        {
          "address": "0x5fc8d32690cc91d4c39d9d3abcbd16989f875707",
          "topics": [
            "0xddf252ad1be2c89b69c2b068fc378daa952ba7f163c4a11628f55a4df523b3ef",
            "0x0000000000000000000000000000000000000000000000000000000000000000",
            "0x000000000000000000000000f39fd6e51aad88f6f4ce6ab8827279cfffb92266"
          ],
          "data": "0x000000000000000000000000000000000000000000000000000000174876e800",
          "blockHash": "0x3d62f11dd68913de2fc7aec76097f43690551b29c72a1d6aa4f0b5003c979aed",
          "blockNumber": "0x3",
          "blockTimestamp": "0x6920592c",
          "transactionHash": "0x58e6c58560fc48aa0c99d45d507543db471af96496d6765ffa8821ed990ad041",
          "transactionIndex": "0x0",
          "logIndex": "0x0",
          "removed": false
        },
        {
          "address": "0x5fc8d32690cc91d4c39d9d3abcbd16989f875707",
          "topics": [
            "0x30385c845b448a36257a6a1716e6ad2e1bc2cbe333cde1e69fe849ad6511adfe",
            "0x000000000000000000000000f39fd6e51aad88f6f4ce6ab8827279cfffb92266"
          ],
          "data": "0x000000000000000000000000000000000000000000000000000000174876e800",
          "blockHash": "0x3d62f11dd68913de2fc7aec76097f43690551b29c72a1d6aa4f0b5003c979aed",
          "blockNumber": "0x3",
          "blockTimestamp": "0x6920592c",
          "transactionHash": "0x58e6c58560fc48aa0c99d45d507543db471af96496d6765ffa8821ed990ad041",
          "transactionIndex": "0x0",
          "logIndex": "0x1",
          "removed": false
        }
      ],
      "logsBloom": "0x00000000000000000000000000000000000000000000000000000000000000020000000000000000000000000000000000000000000000000000000000000000000000000000000000000008000000000000000240000000000000000000000000000000020000000000000100000800000000000000000080000010000000000000000000000000000000000000000000000000000000000000000000000000000000000000000000000000000000000000000000000000000000000000000000000002000000200000000000000000000000002040000000000001000020000000000000000000000000000000000000000000000000000000000000000000",
      "type": "0x2",
      "transactionHash": "0x58e6c58560fc48aa0c99d45d507543db471af96496d6765ffa8821ed990ad041",
      "transactionIndex": "0x0",
      "blockHash": "0x3d62f11dd68913de2fc7aec76097f43690551b29c72a1d6aa4f0b5003c979aed",
      "blockNumber": "0x3",
      "gasUsed": "0xa7ad",
      "effectiveGasPrice": "0x32ad684c",
      "blobGasPrice": "0x1",
      "from": "0xf39fd6e51aad88f6f4ce6ab8827279cfffb92266",
      "to": "0x5fc8d32690cc91d4c39d9d3abcbd16989f875707",
      "contractAddress": null
    }
  ],
  "libraries": [],
  "pending": [],
  "returns": {},
  "timestamp": 1763727660984,
  "chain": 31337,
  "commit": "55a2048"
}